{
  "_format": "hh-sol-artifact-1",
  "contractName": "BabyPool",
  "sourceName": "contracts/BabyPool.sol",
  "abi": [
    {
      "inputs": [
        {
          "internalType": "address",
          "name": "_oracle",
          "type": "address"
        }
      ],
      "stateMutability": "nonpayable",
      "type": "constructor"
    },
    {
      "inputs": [
        {
          "internalType": "enum BabyPool.Side",
          "name": "",
          "type": "uint8"
        }
      ],
      "name": "bets",
      "outputs": [
        {
          "internalType": "uint256",
          "name": "",
          "type": "uint256"
        }
      ],
      "stateMutability": "view",
      "type": "function"
    },
    {
      "inputs": [
        {
          "internalType": "address",
          "name": "",
          "type": "address"
        },
        {
          "internalType": "enum BabyPool.Side",
          "name": "",
          "type": "uint8"
        }
      ],
      "name": "betsPerGambler",
      "outputs": [
        {
          "internalType": "uint256",
          "name": "",
          "type": "uint256"
        }
      ],
      "stateMutability": "view",
      "type": "function"
    },
    {
      "inputs": [],
      "name": "collectFees",
      "outputs": [],
      "stateMutability": "nonpayable",
      "type": "function"
    },
    {
      "inputs": [],
      "name": "electionFinished",
      "outputs": [
        {
          "internalType": "bool",
          "name": "",
          "type": "bool"
        }
      ],
      "stateMutability": "view",
      "type": "function"
    },
    {
      "inputs": [],
      "name": "oracle",
      "outputs": [
        {
          "internalType": "address",
          "name": "",
          "type": "address"
        }
      ],
      "stateMutability": "view",
      "type": "function"
    },
    {
      "inputs": [],
      "name": "parentsPercentageFee",
      "outputs": [
        {
          "internalType": "uint256",
          "name": "",
          "type": "uint256"
        }
      ],
      "stateMutability": "view",
      "type": "function"
    },
    {
      "inputs": [
        {
          "internalType": "enum BabyPool.Side",
          "name": "_side",
          "type": "uint8"
        }
      ],
      "name": "placeBet",
      "outputs": [],
      "stateMutability": "payable",
      "type": "function"
    },
    {
      "inputs": [
        {
          "internalType": "enum BabyPool.Side",
          "name": "_winner",
          "type": "uint8"
        },
        {
          "internalType": "enum BabyPool.Side",
          "name": "_loser",
          "type": "uint8"
        }
      ],
      "name": "reportResult",
      "outputs": [],
      "stateMutability": "nonpayable",
      "type": "function"
    },
    {
      "inputs": [],
      "name": "result",
      "outputs": [
        {
          "internalType": "enum BabyPool.Side",
          "name": "winner",
          "type": "uint8"
        },
        {
          "internalType": "enum BabyPool.Side",
          "name": "loser",
          "type": "uint8"
        }
      ],
      "stateMutability": "view",
      "type": "function"
    },
    {
      "inputs": [
        {
          "internalType": "uint256",
          "name": "_fee",
          "type": "uint256"
        }
      ],
      "name": "setParentsPercentageFee",
      "outputs": [],
      "stateMutability": "nonpayable",
      "type": "function"
    },
    {
      "inputs": [],
      "name": "totalFeesCollected",
      "outputs": [
        {
          "internalType": "uint256",
          "name": "",
          "type": "uint256"
        }
      ],
      "stateMutability": "view",
      "type": "function"
    },
    {
      "inputs": [],
      "name": "withdrawAllContractBalance",
      "outputs": [],
      "stateMutability": "nonpayable",
      "type": "function"
    },
    {
      "inputs": [],
      "name": "withdrawGain",
      "outputs": [],
      "stateMutability": "nonpayable",
      "type": "function"
    }
  ],
  "bytecode": "0x6080604052601e6002553480156200001657600080fd5b506040516200150c3803806200150c83398181016040528101906200003c91906200009b565b80600660006101000a81548173ffffffffffffffffffffffffffffffffffffffff021916908373ffffffffffffffffffffffffffffffffffffffff1602179055505062000120565b600081519050620000958162000106565b92915050565b600060208284031215620000b457620000b362000101565b5b6000620000c48482850162000084565b91505092915050565b6000620000da82620000e1565b9050919050565b600073ffffffffffffffffffffffffffffffffffffffff82169050919050565b600080fd5b6200011181620000cd565b81146200011d57600080fd5b50565b6113dc80620001306000396000f3fe6080604052600436106100c25760003560e01c80637dc0d1d01161007f5780639d5a3739116100595780639d5a373914610224578063beab6e7e14610261578063c87965721461028c578063c9452d7a146102a3576100c2565b80637dc0d1d0146101a55780637e0ecc00146101d0578063869e1a131461020d576100c2565b80632b539c86146100c757806343046844146100de57806343a2ba2f146100fa5780634ec942b71461012557806360c6d8ae1461014e5780636537214714610179575b600080fd5b3480156100d357600080fd5b506100dc6102cc565b005b6100f860048036038101906100f39190610d7d565b610675565b005b34801561010657600080fd5b5061010f6107d4565b60405161011c9190611039565b60405180910390f35b34801561013157600080fd5b5061014c60048036038101906101479190610daa565b6107da565b005b34801561015a57600080fd5b50610163610936565b6040516101709190611039565b60405180910390f35b34801561018557600080fd5b5061018e61093c565b60405161019c929190610f70565b60405180910390f35b3480156101b157600080fd5b506101ba610968565b6040516101c79190610f3a565b60405180910390f35b3480156101dc57600080fd5b506101f760048036038101906101f29190610d7d565b61098e565b6040516102049190611039565b60405180910390f35b34801561021957600080fd5b506102226109a6565b005b34801561023057600080fd5b5061024b60048036038101906102469190610d3d565b610aeb565b6040516102589190611039565b60405180910390f35b34801561026d57600080fd5b50610276610b10565b6040516102839190610f55565b60405180910390f35b34801561029857600080fd5b506102a1610b23565b005b3480156102af57600080fd5b506102ca60048036038101906102c59190610dea565b610c64565b005b6000600560003373ffffffffffffffffffffffffffffffffffffffff1673ffffffffffffffffffffffffffffffffffffffff16815260200190815260200160002060008060000160009054906101000a900460ff16600181111561033357610332611250565b5b600181111561034557610344611250565b5b815260200190815260200160002054905060008111610399576040517f08c379a000000000000000000000000000000000000000000000000000000000815260040161039090610f99565b60405180910390fd5b60011515600160009054906101000a900460ff161515146103ef576040517f08c379a00000000000000000000000000000000000000000000000000000000081526004016103e690611019565b60405180910390fd5b6000600460008060000160009054906101000a900460ff16600181111561041957610418611250565b5b600181111561042b5761042a611250565b5b81526020019081526020016000205482600460008060000160019054906101000a900460ff16600181111561046357610462611250565b5b600181111561047557610474611250565b5b81526020019081526020016000205461048e91906110f7565b61049891906110c6565b826104a39190611070565b90506000606460025460646104b89190611151565b836104c391906110f7565b6104cd91906110c6565b90506000600560003373ffffffffffffffffffffffffffffffffffffffff1673ffffffffffffffffffffffffffffffffffffffff168152602001908152602001600020600080600181111561052557610524611250565b5b600181111561053757610536611250565b5b8152602001908152602001600020819055506000600560003373ffffffffffffffffffffffffffffffffffffffff1673ffffffffffffffffffffffffffffffffffffffff168152602001908152602001600020600060018081111561059f5761059e611250565b5b60018111156105b1576105b0611250565b5b81526020019081526020016000208190555060003373ffffffffffffffffffffffffffffffffffffffff16826040516105e990610f25565b60006040518083038185875af1925050503d8060008114610626576040519150601f19603f3d011682016040523d82523d6000602084013e61062b565b606091505b505090508061066f576040517f08c379a000000000000000000000000000000000000000000000000000000000815260040161066690610ff9565b60405180910390fd5b50505050565b60001515600160009054906101000a900460ff161515146106cb576040517f08c379a00000000000000000000000000000000000000000000000000000000081526004016106c290610fd9565b60405180910390fd5b6064600254346106db91906110f7565b6106e591906110c6565b6003546106f29190611070565b60038190555034600460008360018111156107105761070f611250565b5b600181111561072257610721611250565b5b8152602001908152602001600020600082825461073f9190611070565b9250508190555034600560003373ffffffffffffffffffffffffffffffffffffffff1673ffffffffffffffffffffffffffffffffffffffff168152602001908152602001600020600083600181111561079b5761079a611250565b5b60018111156107ad576107ac611250565b5b815260200190815260200160002060008282546107ca9190611070565b9250508190555050565b60025481565b3373ffffffffffffffffffffffffffffffffffffffff16600660009054906101000a900473ffffffffffffffffffffffffffffffffffffffff1673ffffffffffffffffffffffffffffffffffffffff161461086a576040517f08c379a000000000000000000000000000000000000000000000000000000000815260040161086190610fb9565b60405180910390fd5b60001515600160009054906101000a900460ff161515146108c0576040517f08c379a00000000000000000000000000000000000000000000000000000000081526004016108b790610fd9565b60405180910390fd5b816000800160006101000a81548160ff021916908360018111156108e7576108e6611250565b5b0217905550806000800160016101000a81548160ff0219169083600181111561091357610912611250565b5b021790555060018060006101000a81548160ff0219169083151502179055505050565b60035481565b60008060000160009054906101000a900460ff16908060000160019054906101000a900460ff16905082565b600660009054906101000a900473ffffffffffffffffffffffffffffffffffffffff1681565b60046020528060005260406000206000915090505481565b3373ffffffffffffffffffffffffffffffffffffffff16600660009054906101000a900473ffffffffffffffffffffffffffffffffffffffff1673ffffffffffffffffffffffffffffffffffffffff1614610a36576040517f08c379a0000000000000000000000000000000000000000000000000000000008152600401610a2d90610fb9565b60405180910390fd5b600047905060003373ffffffffffffffffffffffffffffffffffffffff1682604051610a6190610f25565b60006040518083038185875af1925050503d8060008114610a9e576040519150601f19603f3d011682016040523d82523d6000602084013e610aa3565b606091505b5050905080610ae7576040517f08c379a0000000000000000000000000000000000000000000000000000000008152600401610ade90610ff9565b60405180910390fd5b5050565b6005602052816000526040600020602052806000526040600020600091509150505481565b600160009054906101000a900460ff1681565b3373ffffffffffffffffffffffffffffffffffffffff16600660009054906101000a900473ffffffffffffffffffffffffffffffffffffffff1673ffffffffffffffffffffffffffffffffffffffff1614610bb3576040517f08c379a0000000000000000000000000000000000000000000000000000000008152600401610baa90610fb9565b60405180910390fd5b60003373ffffffffffffffffffffffffffffffffffffffff16600354604051610bdb90610f25565b60006040518083038185875af1925050503d8060008114610c18576040519150601f19603f3d011682016040523d82523d6000602084013e610c1d565b606091505b5050905080610c61576040517f08c379a0000000000000000000000000000000000000000000000000000000008152600401610c5890610ff9565b60405180910390fd5b50565b3373ffffffffffffffffffffffffffffffffffffffff16600660009054906101000a900473ffffffffffffffffffffffffffffffffffffffff1673ffffffffffffffffffffffffffffffffffffffff1614610cf4576040517f08c379a0000000000000000000000000000000000000000000000000000000008152600401610ceb90610fb9565b60405180910390fd5b8060028190555050565b600081359050610d0d81611368565b92915050565b600081359050610d228161137f565b92915050565b600081359050610d378161138f565b92915050565b60008060408385031215610d5457610d5361127f565b5b6000610d6285828601610cfe565b9250506020610d7385828601610d13565b9150509250929050565b600060208284031215610d9357610d9261127f565b5b6000610da184828501610d13565b91505092915050565b60008060408385031215610dc157610dc061127f565b5b6000610dcf85828601610d13565b9250506020610de085828601610d13565b9150509250929050565b600060208284031215610e0057610dff61127f565b5b6000610e0e84828501610d28565b91505092915050565b610e2081611185565b82525050565b610e2f81611197565b82525050565b610e3e816111e0565b82525050565b6000610e51601d8361105f565b9150610e5c82611284565b602082019050919050565b6000610e74600e8361105f565b9150610e7f826112ad565b602082019050919050565b6000610e9760118361105f565b9150610ea2826112d6565b602082019050919050565b6000610eba600b8361105f565b9150610ec5826112ff565b602082019050919050565b6000610edd600083611054565b9150610ee882611328565b600082019050919050565b6000610f0060188361105f565b9150610f0b8261132b565b602082019050919050565b610f1f816111d6565b82525050565b6000610f3082610ed0565b9150819050919050565b6000602082019050610f4f6000830184610e17565b92915050565b6000602082019050610f6a6000830184610e26565b92915050565b6000604082019050610f856000830185610e35565b610f926020830184610e35565b9392505050565b60006020820190508181036000830152610fb281610e44565b9050919050565b60006020820190508181036000830152610fd281610e67565b9050919050565b60006020820190508181036000830152610ff281610e8a565b9050919050565b6000602082019050818103600083015261101281610ead565b9050919050565b6000602082019050818103600083015261103281610ef3565b9050919050565b600060208201905061104e6000830184610f16565b92915050565b600081905092915050565b600082825260208201905092915050565b600061107b826111d6565b9150611086836111d6565b9250827fffffffffffffffffffffffffffffffffffffffffffffffffffffffffffffffff038211156110bb576110ba6111f2565b5b828201905092915050565b60006110d1826111d6565b91506110dc836111d6565b9250826110ec576110eb611221565b5b828204905092915050565b6000611102826111d6565b915061110d836111d6565b9250817fffffffffffffffffffffffffffffffffffffffffffffffffffffffffffffffff0483118215151615611146576111456111f2565b5b828202905092915050565b600061115c826111d6565b9150611167836111d6565b92508282101561117a576111796111f2565b5b828203905092915050565b6000611190826111b6565b9050919050565b60008115159050919050565b60008190506111b182611354565b919050565b600073ffffffffffffffffffffffffffffffffffffffff82169050919050565b6000819050919050565b60006111eb826111a3565b9050919050565b7f4e487b7100000000000000000000000000000000000000000000000000000000600052601160045260246000fd5b7f4e487b7100000000000000000000000000000000000000000000000000000000600052601260045260246000fd5b7f4e487b7100000000000000000000000000000000000000000000000000000000600052602160045260246000fd5b600080fd5b7f566f6365206e616f2074656d2061706f7374612076656e6365646f7261000000600082015250565b7f536f6d656e7465206f20646f6e6f000000000000000000000000000000000000600082015250565b7f426f6c616f206a61207465726d696e6f75000000000000000000000000000000600082015250565b7f63616c6c206661696c6564000000000000000000000000000000000000000000600082015250565b50565b7f426f6c616f2061696e6461206e616f207465726d696e6f750000000000000000600082015250565b6002811061136557611364611250565b5b50565b61137181611185565b811461137c57600080fd5b50565b6002811061138c57600080fd5b50565b611398816111d6565b81146113a357600080fd5b5056fea264697066735822122075b66ed17ebefd94cebc327dd4129a89ee677bff90f9258a751511ae0d96d96064736f6c63430008070033",
  "linkReferences": {},
  "deployedLinkReferences": {}
}